{"abi":[{"type":"function","name":"deploy","inputs":[{"name":"salt","type":"bytes32","internalType":"bytes32"},{"name":"creationCode","type":"bytes","internalType":"bytes"}],"outputs":[{"name":"deployed","type":"address","internalType":"address"}],"stateMutability":"payable"},{"type":"function","name":"getDeployed","inputs":[{"name":"deployer","type":"address","internalType":"address"},{"name":"salt","type":"bytes32","internalType":"bytes32"}],"outputs":[{"name":"deployed","type":"address","internalType":"address"}],"stateMutability":"view"}],"bytecode":{"object":"0x60808060405234601557610395908161001a8239f35b5f80fdfe6080806040526004361015610012575f80fd5b5f3560e01c90816350f1c464146101da575063cdcb760a14610032575f80fd5b60403660031901126101d65760243567ffffffffffffffff81116101d657366023820112156101d65780600401359061006a82610282565b91610078604051938461024c565b808352602083019136602483830101116101d657815f926024602093018537840101526040513360601b6001600160601b031916602082019081526004356034830152906100d381605481015b03601f19810183528261024c565b519020806100df61029e565b6020815191015ff56001600160a01b0381161561019d575f9261010284936102cc565b94519134905af13d15610198573d61011981610282565b90610127604051928361024c565b81525f60203d92013e5b8061018e575b15610151576040516001600160a01b039091168152602090f35b60405162461bcd60e51b815260206004820152601560248201527412539255125053125690551253d397d19052531151605a1b6044820152606490fd5b50803b1515610137565b610131565b60405162461bcd60e51b81526020600482015260116024820152701111541313d65351539517d19052531151607a1b6044820152606490fd5b5f80fd5b346101d65760403660031901126101d657600435906001600160a01b03821682036101d65760609190911b6001600160601b031916602082810191825260243560348401529161023a919061023281605481016100c5565b5190206102cc565b6040516001600160a01b039091168152f35b90601f8019910116810190811067ffffffffffffffff82111761026e57604052565b634e487b7160e01b5f52604160045260245ffd5b67ffffffffffffffff811161026e57601f01601f191660200190565b604051906102ad60408361024c565b601082526f67363d3d37363d34f03d5260086018f360801b6020830152565b6102d461029e565b6020815191012060405190602082019260ff60f81b84523060601b6021840152603583015260558201526055815261030d60758261024c565b5190206040516135a560f21b6020820190815260609290921b6001600160601b0319166022820152600160f81b6036820152601781529061034f60378361024c565b905190206001600160a01b03169056fea26469706673582212201fd464c62855483d4f993e842eba18a1f90404c6684ac8cb648dad237ed29dbe64736f6c634300081e0033","linkReferences":{}},"methodIdentifiers":{"deploy(bytes32,bytes)":"cdcb760a","getDeployed(address,bytes32)":"50f1c464"},"id":45}