{"abi":[{"type":"receive","stateMutability":"payable"},{"type":"function","name":"unlockAndUnwrap","inputs":[{"name":"poolManager","type":"address","internalType":"address"},{"name":"liquidityHub","type":"address","internalType":"address"},{"name":"lcc","type":"address","internalType":"address"},{"name":"amount","type":"uint256","internalType":"uint256"},{"name":"expectedChainId","type":"uint256","internalType":"uint256"}],"outputs":[{"name":"ret","type":"bytes","internalType":"bytes"}],"stateMutability":"nonpayable"},{"type":"function","name":"unlockCallback","inputs":[{"name":"data","type":"bytes","internalType":"bytes"}],"outputs":[{"name":"","type":"bytes","internalType":"bytes"}],"stateMutability":"nonpayable"},{"type":"error","name":"EtherNotAccepted","inputs":[]},{"type":"error","name":"InvalidAddress","inputs":[]},{"type":"error","name":"InvalidCallbackSender","inputs":[{"name":"sender","type":"address","internalType":"address"},{"name":"expected","type":"address","internalType":"address"}]},{"type":"error","name":"SelfCallOnly","inputs":[]},{"type":"error","name":"WrongChain","inputs":[{"name":"expected","type":"uint256","internalType":"uint256"},{"name":"actual","type":"uint256","internalType":"uint256"}]}],"bytecode":{"object":"0x6080604052348015600e575f80fd5b506106018061001c5f395ff3fe60806040526004361061002b575f3560e01c806391dd73461461004d578063e629e4a514610082575f80fd5b3661004957604051630dccd20d60e21b815260040160405180910390fd5b5f80fd5b348015610058575f80fd5b5061006c610067366004610361565b6100a1565b60405161007991906103cf565b60405180910390f35b34801561008d575f80fd5b5061006c61009c36600461041f565b6101ad565b60605f6100b0838501856104b5565b80519091506001600160a01b031633146100f657805160405163a415aad560e01b81523360048201526001600160a01b0390911660248201526044015b60405180910390fd5b468160800151146101295760808101516040516324497bc360e01b815260048101919091524660248201526044016100ed565b6020810151604080830151606084015191516339f4769360e01b81526001600160a01b0391821660048201526024810192909252909116906339f47693906044015f604051808303815f87803b158015610181575f80fd5b505af1158015610193573d5f803e3d5ffd5b505060408051602081019091525f81529695505050505050565b60603330146101cf57604051639d26379f60e01b815260040160405180910390fd5b6001600160a01b03861615806101ec57506001600160a01b038516155b806101fe57506001600160a01b038416155b1561021c5760405163e6c4247b60e01b815260040160405180910390fd5b468214610245576040516324497bc360e01b8152600481018390524660248201526044016100ed565b5f6040518060a00160405280886001600160a01b03168152602001876001600160a01b03168152602001866001600160a01b03168152602001858152602001848152506040516020016102d8919081516001600160a01b03908116825260208084015182169083015260408084015190911690820152606080830151908201526080918201519181019190915260a00190565b60408051601f19818403018152908290526348c8949160e01b825291506001600160a01b038816906348c89491906103149084906004016103cf565b5f604051808303815f875af115801561032f573d5f803e3d5ffd5b505050506040513d5f823e601f3d908101601f191682016040526103569190810190610537565b979650505050505050565b5f8060208385031215610372575f80fd5b823567ffffffffffffffff811115610388575f80fd5b8301601f81018513610398575f80fd5b803567ffffffffffffffff8111156103ae575f80fd5b8560208284010111156103bf575f80fd5b6020919091019590945092505050565b602081525f82518060208401528060208501604085015e5f604082850101526040601f19601f83011684010191505092915050565b80356001600160a01b038116811461041a575f80fd5b919050565b5f805f805f60a08688031215610433575f80fd5b61043c86610404565b945061044a60208701610404565b935061045860408701610404565b94979396509394606081013594506080013592915050565b634e487b7160e01b5f52604160045260245ffd5b604051601f8201601f1916810167ffffffffffffffff811182821017156104ad576104ad610470565b604052919050565b5f60a08284031280156104c6575f80fd5b5060405160a0810167ffffffffffffffff811182821017156104ea576104ea610470565b6040526104f683610404565b815261050460208401610404565b602082015261051560408401610404565b6040820152606083810135908201526080928301359281019290925250919050565b5f60208284031215610547575f80fd5b815167ffffffffffffffff81111561055d575f80fd5b8201601f8101841361056d575f80fd5b805167ffffffffffffffff81111561058757610587610470565b61059a601f8201601f1916602001610484565b8181528560208385010111156105ae575f80fd5b8160208401602083015e5f9181016020019190915294935050505056fea264697066735822122008f90cb86e95868659e1635c88ef480c97ab389acd54a75287aa95ab6353f9ac64736f6c634300081a0033","linkReferences":{}},"methodIdentifiers":{"unlockAndUnwrap(address,address,address,uint256,uint256)":"e629e4a5","unlockCallback(bytes)":"91dd7346"},"id":33}