{"abi":[{"type":"constructor","inputs":[{"name":"_entryPoint","type":"address","internalType":"contract IEntryPoint"}],"stateMutability":"nonpayable"},{"type":"function","name":"entryPoint","inputs":[],"outputs":[{"name":"","type":"address","internalType":"contract IEntryPoint"}],"stateMutability":"view"},{"type":"function","name":"getNonce","inputs":[{"name":"key","type":"uint192","internalType":"uint192"}],"outputs":[{"name":"","type":"uint256","internalType":"uint256"}],"stateMutability":"view"},{"type":"function","name":"getNonce","inputs":[],"outputs":[{"name":"","type":"uint256","internalType":"uint256"}],"stateMutability":"view"},{"type":"function","name":"getOwner","inputs":[],"outputs":[{"name":"","type":"address","internalType":"address"}],"stateMutability":"view"},{"type":"function","name":"transferOwnership","inputs":[{"name":"_newOwner","type":"address","internalType":"address"}],"outputs":[],"stateMutability":"nonpayable"},{"type":"function","name":"upgradeTo","inputs":[{"name":"_newImplementation","type":"address","internalType":"address"}],"outputs":[],"stateMutability":"nonpayable"},{"type":"event","name":"Upgraded","inputs":[{"name":"newImplementation","type":"address","indexed":true,"internalType":"address"}],"anonymous":false}],"bytecode":{"object":"0x60a0346100b757601f61055d38819003918201601f19168301916001600160401b038311848410176100bb578084926020946040528339810103126100b757516001600160a01b03811681036100b7576080527f439ffe7df606b78489639bc0b827913bd09e1246fa6802968a5b3694c53e0dd880546001600160a01b031916600117905560405161048d90816100d08239608051818181608401528181610143015281816101d80152818161028401526102ee0152f35b5f80fd5b634e487b7160e01b5f52604160045260245ffdfe60806040526004361015610011575f80fd5b5f3560e01c80633659cfe6146102c55780633e1b08121461023b578063893d20e814610207578063b0d691fe146101c3578063d087d288146101125763f2fde38b1461005b575f80fd5b3461010e57602036600319011261010e576004356001600160a01b0381169081900361010e57337f00000000000000000000000000000000000000000000000000000000000000006001600160a01b03161480156100ee575b80156100e5575b6100c49061039f565b5f5160206104385f395f51905f5280546001600160a01b0319169091179055005b503330146100bb565b505f5160206104385f395f51905f52546001600160a01b031633146100b4565b5f80fd5b3461010e575f36600319011261010e57604051631aab3f0d60e11b81523060048201525f60248201526020816044817f00000000000000000000000000000000000000000000000000000000000000006001600160a01b03165afa80156101b8575f90610185575b602090604051908152f35b506020813d6020116101b0575b8161019f60209383610401565b8101031261010e576020905161017a565b3d9150610192565b6040513d5f823e3d90fd5b3461010e575f36600319011261010e576040517f00000000000000000000000000000000000000000000000000000000000000006001600160a01b03168152602090f35b3461010e575f36600319011261010e575f5160206104385f395f51905f52546040516001600160a01b039091168152602090f35b3461010e57602036600319011261010e576004356001600160c01b0381169081900361010e57604051631aab3f0d60e11b815230600482015260248101919091526020816044817f00000000000000000000000000000000000000000000000000000000000000006001600160a01b03165afa80156101b8575f9061018557602090604051908152f35b3461010e57602036600319011261010e576004356001600160a01b0381169081810361010e57337f00000000000000000000000000000000000000000000000000000000000000006001600160a01b031614801561037f575b8015610376575b61032e9061039f565b7f360894a13ba1a3210667c828492db98dca3e2076cc3735a920a3ca505d382bbc557fbc7cd75a20ee27fd9adebab32041f755214dbc6bffa90cc0225b39da2e5c2d3b5f80a2005b50333014610325565b505f5160206104385f395f51905f52546001600160a01b0316331461031e565b156103a657565b60405162461bcd60e51b815260206004820152602d60248201527f6163636f756e743a206e6f742066726f6d20656e747279706f696e74206f722060448201526c37bbb732b91037b91039b2b63360991b6064820152608490fd5b90601f8019910116810190811067ffffffffffffffff82111761042357604052565b634e487b7160e01b5f52604160045260245ffdfe439ffe7df606b78489639bc0b827913bd09e1246fa6802968a5b3694c53e0dd8a2646970667358221220fd6243f292ec1a2013b2a85c3fc4385dca713224003c6544fd8dc475c11bc9a064736f6c634300081e0033","linkReferences":{}},"methodIdentifiers":{"entryPoint()":"b0d691fe","getNonce()":"d087d288","getNonce(uint192)":"3e1b0812","getOwner()":"893d20e8","transferOwnership(address)":"f2fde38b","upgradeTo(address)":"3659cfe6"},"id":37}