{"abi":[{"type":"constructor","inputs":[{"name":"_entryPoint","type":"address","internalType":"contract IEntryPoint"}],"stateMutability":"nonpayable"},{"type":"receive","stateMutability":"payable"},{"type":"function","name":"entryPoint","inputs":[],"outputs":[{"name":"","type":"address","internalType":"contract IEntryPoint"}],"stateMutability":"view"},{"type":"function","name":"executeAndRevert","inputs":[{"name":"to","type":"address","internalType":"address"},{"name":"value","type":"uint256","internalType":"uint256"},{"name":"data","type":"bytes","internalType":"bytes"},{"name":"operation","type":"uint8","internalType":"enum Operation"}],"outputs":[],"stateMutability":"nonpayable"},{"type":"function","name":"getNonce","inputs":[{"name":"key","type":"uint192","internalType":"uint192"}],"outputs":[{"name":"","type":"uint256","internalType":"uint256"}],"stateMutability":"view"},{"type":"function","name":"getNonce","inputs":[],"outputs":[{"name":"","type":"uint256","internalType":"uint256"}],"stateMutability":"view"},{"type":"function","name":"getOwner","inputs":[],"outputs":[{"name":"","type":"address","internalType":"address"}],"stateMutability":"view"},{"type":"function","name":"initialize","inputs":[{"name":"_owner","type":"address","internalType":"address"}],"outputs":[],"stateMutability":"nonpayable"},{"type":"function","name":"isValidSignature","inputs":[{"name":"_hash","type":"bytes32","internalType":"bytes32"},{"name":"_signature","type":"bytes","internalType":"bytes"}],"outputs":[{"name":"","type":"bytes4","internalType":"bytes4"}],"stateMutability":"view"},{"type":"function","name":"name","inputs":[],"outputs":[{"name":"","type":"string","internalType":"string"}],"stateMutability":"view"},{"type":"function","name":"onERC1155BatchReceived","inputs":[{"name":"","type":"address","internalType":"address"},{"name":"","type":"address","internalType":"address"},{"name":"","type":"uint256[]","internalType":"uint256[]"},{"name":"","type":"uint256[]","internalType":"uint256[]"},{"name":"","type":"bytes","internalType":"bytes"}],"outputs":[{"name":"","type":"bytes4","internalType":"bytes4"}],"stateMutability":"pure"},{"type":"function","name":"onERC1155Received","inputs":[{"name":"","type":"address","internalType":"address"},{"name":"","type":"address","internalType":"address"},{"name":"","type":"uint256","internalType":"uint256"},{"name":"","type":"uint256","internalType":"uint256"},{"name":"","type":"bytes","internalType":"bytes"}],"outputs":[{"name":"","type":"bytes4","internalType":"bytes4"}],"stateMutability":"pure"},{"type":"function","name":"onERC721Received","inputs":[{"name":"","type":"address","internalType":"address"},{"name":"","type":"address","internalType":"address"},{"name":"","type":"uint256","internalType":"uint256"},{"name":"","type":"bytes","internalType":"bytes"}],"outputs":[{"name":"","type":"bytes4","internalType":"bytes4"}],"stateMutability":"pure"},{"type":"function","name":"queryPlugin","inputs":[{"name":"_plugin","type":"address","internalType":"address"},{"name":"_data","type":"bytes","internalType":"bytes"}],"outputs":[],"stateMutability":"nonpayable"},{"type":"function","name":"transferOwnership","inputs":[{"name":"_newOwner","type":"address","internalType":"address"}],"outputs":[],"stateMutability":"nonpayable"},{"type":"function","name":"upgradeTo","inputs":[{"name":"_newImplementation","type":"address","internalType":"address"}],"outputs":[],"stateMutability":"nonpayable"},{"type":"function","name":"validateUserOp","inputs":[{"name":"userOp","type":"tuple","internalType":"struct UserOperation","components":[{"name":"sender","type":"address","internalType":"address"},{"name":"nonce","type":"uint256","internalType":"uint256"},{"name":"initCode","type":"bytes","internalType":"bytes"},{"name":"callData","type":"bytes","internalType":"bytes"},{"name":"callGasLimit","type":"uint256","internalType":"uint256"},{"name":"verificationGasLimit","type":"uint256","internalType":"uint256"},{"name":"preVerificationGas","type":"uint256","internalType":"uint256"},{"name":"maxFeePerGas","type":"uint256","internalType":"uint256"},{"name":"maxPriorityFeePerGas","type":"uint256","internalType":"uint256"},{"name":"paymasterAndData","type":"bytes","internalType":"bytes"},{"name":"signature","type":"bytes","internalType":"bytes"}]},{"name":"userOpHash","type":"bytes32","internalType":"bytes32"},{"name":"missingAccountFunds","type":"uint256","internalType":"uint256"}],"outputs":[{"name":"validationData","type":"uint256","internalType":"uint256"}],"stateMutability":"nonpayable"},{"type":"function","name":"version","inputs":[],"outputs":[{"name":"","type":"string","internalType":"string"}],"stateMutability":"view"},{"type":"event","name":"Upgraded","inputs":[{"name":"newImplementation","type":"address","indexed":true,"internalType":"address"}],"anonymous":false},{"type":"error","name":"InvalidNonce","inputs":[]},{"type":"error","name":"InvalidSignatureLength","inputs":[]},{"type":"error","name":"QueryResult","inputs":[{"name":"result","type":"bytes","internalType":"bytes"}]}],"bytecode":{"object":"0x61016080604052346101a05760208161183e803803809161002082856101a4565b8339810103126101a057516001600160a01b03811681036101a0576040516100496040826101a4565b6006815260208101906512d95c9b995b60d21b82526040519161006d6040846101a4565b60058352602083019164302e302e3160d81b8352519020915190208160e05280610100524660a0526040519060208201925f51602061181e5f395f51905f528452604083015260608201524660808201523060a082015260a081526100d360c0826101a4565b5190206080523060c0525f51602061181e5f395f51905f5261012052610140527f439ffe7df606b78489639bc0b827913bd09e1246fa6802968a5b3694c53e0dd880546001600160a01b031916600117905560405161164290816101dc823960805181611494015260a0518161154b015260c0518161145e015260e051816114e301526101005181611509015261012051816114c001526101405181818161036c015281816104bf0152818161060a015281816106cd0152818161088f0152818161094c0152610d2c0152f35b5f80fd5b601f909101601f19168101906001600160401b038211908210176101c757604052565b634e487b7160e01b5f52604160045260245ffdfe6080604052600436101561001a575b3615610018575f80fd5b005b5f3560e01c806306fdde0314610119578063150b7a02146101145780631626ba7e1461010f5780633659cfe61461010a5780633a871cdd146101055780633e1b08121461010057806354fd4d50146100fb578063893d20e8146100f6578063940d3c60146100f1578063b0d691fe146100ec578063bc197c81146100e7578063c4d66de8146100e2578063d087d288146100dd578063f23a6e61146100d8578063f2fde38b146100d35763f333df550361000e576109e2565b610930565b6108da565b61085e565b6107c4565b61072c565b6106b8565b6105ba565b610586565b61053f565b610476565b610428565b610350565b6102fe565b610254565b610197565b634e487b7160e01b5f52604160045260245ffd5b90601f801991011681019081106001600160401b0382111761015357604052565b61011e565b6001600160401b03811161015357601f01601f191660200190565b805180835260209291819084018484015e5f828201840152601f01601f1916010190565b346101e3575f3660031901126101e3576101df6040516101b8604082610132565b600681526512d95c9b995b60d21b6020820152604051918291602083526020830190610173565b0390f35b5f80fd5b600435906001600160a01b03821682036101e357565b602435906001600160a01b03821682036101e357565b35906001600160a01b03821682036101e357565b9181601f840112156101e3578235916001600160401b0383116101e357602083818601950101116101e357565b346101e35760803660031901126101e35761026d6101e7565b506102766101fd565b506064356001600160401b0381116101e357610296903690600401610227565b5050604051630a85bd0160e11b8152602090f35b9291926102b682610158565b916102c46040519384610132565b8294818452818301116101e3578281602093845f960137010152565b9080601f830112156101e3578160206102fb933591016102aa565b90565b346101e35760403660031901126101e3576004356024356001600160401b0381116101e35760209161033761033d9236906004016102e0565b90610a57565b6040516001600160e01b03199091168152f35b346101e35760203660031901126101e3576103696101e7565b337f00000000000000000000000000000000000000000000000000000000000000006001600160a01b0316148015610408575b80156103ff575b6103ac90610ae3565b7f360894a13ba1a3210667c828492db98dca3e2076cc3735a920a3ca505d382bbc8190556001600160a01b03167fbc7cd75a20ee27fd9adebab32041f755214dbc6bffa90cc0225b39da2e5c2d3b5f80a2005b503330146103a3565b505f5160206115ed5f395f51905f52546001600160a01b0316331461039c565b346101e35760603660031901126101e3576004356001600160401b0381116101e35761016060031982360301126101e35761046e60209160243560443591600401610d25565b604051908152f35b346101e35760203660031901126101e3576004356001600160c01b038116908190036101e357604051631aab3f0d60e11b815230600482015260248101919091526020816044817f00000000000000000000000000000000000000000000000000000000000000006001600160a01b03165afa801561053a576101df915f9161050b575b506040519081529081906020820190565b61052d915060203d602011610533575b6105258183610132565b810190610f77565b5f6104fa565b503d61051b565b610f86565b346101e3575f3660031901126101e3576101df604051610560604082610132565b6005815264302e302e3160d81b6020820152604051918291602083526020830190610173565b346101e3575f3660031901126101e3575f5160206115ed5f395f51905f52546040516001600160a01b039091168152602090f35b346101e35760803660031901126101e3576105d36101e7565b602435906044356001600160401b0381116101e3576105f6903690600401610227565b909260643560028110156101e357600190337f00000000000000000000000000000000000000000000000000000000000000006001600160a01b0316148015610694575b61064390610f91565b61064c81610fff565b036106785750610667926106619136916102aa565b906112d4565b905b1561067057005b602081519101fd5b9061068e936106889136916102aa565b916112ab565b90610669565b506106435f5160206115ed5f395f51905f52838060a01b039054163314905061063a565b346101e3575f3660031901126101e3576040517f00000000000000000000000000000000000000000000000000000000000000006001600160a01b03168152602090f35b9181601f840112156101e3578235916001600160401b0383116101e3576020808501948460051b0101116101e357565b346101e35760a03660031901126101e3576107456101e7565b5061074e6101fd565b506044356001600160401b0381116101e35761076e9036906004016106fc565b50506064356001600160401b0381116101e35761078f9036906004016106fc565b50506084356001600160401b0381116101e3576107b0903690600401610227565b505060405163bc197c8160e01b8152602090f35b346101e35760203660031901126101e3576107dd6101e7565b5f5160206115ed5f395f51905f5280549091906001600160a01b03166108195781546001600160a01b0319166001600160a01b03909116179055005b60405162461bcd60e51b815260206004820152601c60248201527f6163636f756e743a20616c726561647920696e697469616c697a6564000000006044820152606490fd5b346101e3575f3660031901126101e357604051631aab3f0d60e11b81523060048201525f60248201526020816044817f00000000000000000000000000000000000000000000000000000000000000006001600160a01b03165afa801561053a576101df915f9161050b57506040519081529081906020820190565b346101e35760a03660031901126101e3576108f36101e7565b506108fc6101fd565b506084356001600160401b0381116101e35761091c903690600401610227565b505060405163f23a6e6160e01b8152602090f35b346101e35760203660031901126101e3576109496101e7565b337f00000000000000000000000000000000000000000000000000000000000000006001600160a01b03161480156109c2575b80156109b9575b61098c90610ae3565b5f5160206115ed5f395f51905f5280546001600160a01b0319166001600160a01b03909216919091179055005b50333014610983565b505f5160206115ed5f395f51905f52546001600160a01b0316331461097c565b346101e35760403660031901126101e3576109fb6101e7565b602435906001600160401b0382116101e357610661610a21610a28933690600401610227565b36916102aa565b90156106705760405163a52b216960e01b815260206004820152908190610a53906024830190610173565b0390fd5b5f5160206115ed5f395f51905f525490610a7c610a7484836112fc565b91909161133b565b6001600160a01b03838116911614610ad457610aab92610a9e610aa39261101b565b6112fc565b92909261133b565b6001600160a01b03918216911603610ac857630b135d3f60e11b90565b6001600160e01b031990565b50630b135d3f60e11b92915050565b15610aea57565b60405162461bcd60e51b815260206004820152602d60248201527f6163636f756e743a206e6f742066726f6d20656e747279706f696e74206f722060448201526c37bbb732b91037b91039b2b63360991b6064820152608490fd5b15610b4c57565b60405162461bcd60e51b815260206004820152601c60248201527f6163636f756e743a206e6f742066726f6d20656e747279506f696e74000000006044820152606490fd5b903590601e19813603018212156101e357018035906001600160401b0382116101e3576020019181360383136101e357565b906014116101e35790601490565b90601a116101e35760140190600690565b906020116101e357601a0190600690565b906061116101e35760200190604190565b90929192836061116101e35783116101e357606101916060190190565b356bffffffffffffffffffffffff19811692919060148210610c41575050565b6bffffffffffffffffffffffff1960149290920360031b82901b16169150565b356001600160d01b0319811692919060068210610c7c575050565b6001600160d01b031960069290920360031b82901b16169150565b9190916040818403126101e35780356001600160401b0381116101e35783610cc09183016102e0565b9260208201356001600160401b0381116101e3576102fb92016102e0565b908160209103126101e3575180151581036101e35790565b3d15610d20573d90610d0782610158565b91610d156040519384610132565b82523d5f602084013e565b606090565b90610d5a337f00000000000000000000000000000000000000000000000000000000000000006001600160a01b031614610b45565b61014082016041610d6b8285610b91565b9050145f14610d9e5750610d7e9161121c565b905b80610d89575090565b5f80808093335af150610d9a610cf6565b5090565b906061610dab8385610b91565b9050115f14610f6857610dd9610dd3610dcd610dc78587610b91565b90610bc3565b90610c21565b60601c90565b90610dff610df9610df3610ded8688610b91565b90610bd1565b90610c61565b60d01c90565b93610ee3610e1c610df9610df3610e168886610b91565b90610be2565b94610ede87610ec8610ed6610e5c610e54610e4d610e46610a21610e408a8d610b91565b90610bf3565b978a610b91565b8091610c04565b810190610c97565b508051602091820120604080517f4584533bad8bbd8aa77024a548a56acb8d2807847381ce1b3364745ca396b2e39381019384526001600160a01b038d169181019190915265ffffffffffff9586166060820152948c16608086015260a08501529291829060c0820190565b03601f198101835282610132565b519020611060565b61100e565b5f5160206115ed5f395f51905f52546001600160a01b03918216911603610f5d5785610f2592610f1692610f29956110e4565b60208082518301019101610cde565b1590565b610f555760a09190911b65ffffffffffff60a01b1660d09190911b6001600160d01b0319161790610d80565b505050600190565b505050505050600190565b634be6321b60e01b5f5260045ffd5b908160209103126101e3575190565b6040513d5f823e3d90fd5b15610f9857565b60405162461bcd60e51b815260206004820152602560248201527f6163636f756e743a206e6f742066726f6d20656e747279706f696e74206f722060448201526437bbb732b960d91b6064820152608490fd5b634e487b7160e01b5f52602160045260245ffd5b6002111561100957565b610feb565b6102fb91610a74916112fc565b60405160208101917f19457468657265756d205369676e6564204d6573736167653a0a3332000000008352603c820152603c815261105a605c82610132565b51902090565b61106861145b565b9060405190602082019261190160f01b8452602283015260428201526042815261105a606282610132565b9035601e19823603018112156101e35701602081359101916001600160401b0382116101e35781360383136101e357565b908060209392818452848401375f828201840152601f01601f1916010190565b9061120e906111f59361121395604051958693634f1022e760e11b6020860152606060248601526111286084860161111b83610213565b6001600160a01b03169052565b602081013560a48601526111e26111d661117d61115e61114b6040860186611093565b61016060c48c01526101e48b01916110c4565b61116b6060860186611093565b8a83036083190160e48c0152906110c4565b608084013561010489015260a084013561012489015260c084013561014489015260e08401356101648901526101008401356101848901526111c3610120850185611093565b898303608319016101a48b0152906110c4565b91610140810190611093565b868303608319016101c4880152906110c4565b916044840152606483015203601f198101845283610132565b6112d4565b90156106705790565b5f5160206115ed5f395f51905f52545f93926001600160a01b03909116919061014082019061125a610a74611254610a218587610b91565b836112fc565b6001600160a01b031684146112a25791611286610a21610a749361128061128c9661101b565b93610b91565b906112fc565b6001600160a01b03160361129c57565b60019150565b505f9450505050565b915f928392602083519301915af1903d604051906020818301016040528082525f602083013e90565b5f918291602082519201905af4903d604051906020818301016040528082525f602083013e90565b9060418151145f146113285761132491602082015190606060408401519301515f1a90611571565b9091565b50505f90600290565b6005111561100957565b61134481611331565b8061134c5750565b61135581611331565b600181036113a25760405162461bcd60e51b815260206004820152601860248201527f45434453413a20696e76616c6964207369676e617475726500000000000000006044820152606490fd5b6113ab81611331565b600281036113f85760405162461bcd60e51b815260206004820152601f60248201527f45434453413a20696e76616c6964207369676e6174757265206c656e677468006044820152606490fd5b80611404600392611331565b1461140b57565b60405162461bcd60e51b815260206004820152602260248201527f45434453413a20696e76616c6964207369676e6174757265202773272076616c604482015261756560f01b6064820152608490fd5b307f00000000000000000000000000000000000000000000000000000000000000006001600160a01b03161480611548575b156114b6577f000000000000000000000000000000000000000000000000000000000000000090565b60405160208101907f000000000000000000000000000000000000000000000000000000000000000082527f000000000000000000000000000000000000000000000000000000000000000060408201527f000000000000000000000000000000000000000000000000000000000000000060608201524660808201523060a082015260a0815261105a60c082610132565b507f0000000000000000000000000000000000000000000000000000000000000000461461148d565b7f7fffffffffffffffffffffffffffffff5d576e7357a4501ddfe92f46681b20a084116115e1576020935f9360ff60809460405194855216868401526040830152606082015282805260015afa1561053a575f516001600160a01b038116156115d957905f90565b505f90600190565b505050505f9060039056fe439ffe7df606b78489639bc0b827913bd09e1246fa6802968a5b3694c53e0dd8a26469706673582212203a490c4f2cf601894b1472ffa69149211aba5a63c8e8042166ad5428e009860764736f6c634300081e00338b73c3c69bb8fe3d512ecc4cf759cc79239f7b179b0ffacaa9a75d522b39400f","linkReferences":{}},"methodIdentifiers":{"entryPoint()":"b0d691fe","executeAndRevert(address,uint256,bytes,uint8)":"940d3c60","getNonce()":"d087d288","getNonce(uint192)":"3e1b0812","getOwner()":"893d20e8","initialize(address)":"c4d66de8","isValidSignature(bytes32,bytes)":"1626ba7e","name()":"06fdde03","onERC1155BatchReceived(address,address,uint256[],uint256[],bytes)":"bc197c81","onERC1155Received(address,address,uint256,uint256,bytes)":"f23a6e61","onERC721Received(address,address,uint256,bytes)":"150b7a02","queryPlugin(address,bytes)":"f333df55","transferOwnership(address)":"f2fde38b","upgradeTo(address)":"3659cfe6","validateUserOp((address,uint256,bytes,bytes,uint256,uint256,uint256,uint256,uint256,bytes,bytes),bytes32,uint256)":"3a871cdd","version()":"54fd4d50"},"id":34}