{
  "address": "0xB39a803559a8F0dE279f78814aA7DE66b7bdd0CF",
  "abi": [
    {
      "inputs": [],
      "stateMutability": "nonpayable",
      "type": "constructor"
    },
    {
      "anonymous": false,
      "inputs": [
        {
          "indexed": false,
          "internalType": "address",
          "name": "account",
          "type": "address"
        },
        {
          "indexed": false,
          "internalType": "address",
          "name": "contractAddress",
          "type": "address"
        },
        {
          "indexed": false,
          "internalType": "string",
          "name": "functionSig",
          "type": "string"
        }
      ],
      "name": "PermissionGranted",
      "type": "event"
    },
    {
      "anonymous": false,
      "inputs": [
        {
          "indexed": false,
          "internalType": "address",
          "name": "account",
          "type": "address"
        },
        {
          "indexed": false,
          "internalType": "address",
          "name": "contractAddress",
          "type": "address"
        },
        {
          "indexed": false,
          "internalType": "string",
          "name": "functionSig",
          "type": "string"
        }
      ],
      "name": "PermissionRevoked",
      "type": "event"
    },
    {
      "anonymous": false,
      "inputs": [
        {
          "indexed": true,
          "internalType": "bytes32",
          "name": "role",
          "type": "bytes32"
        },
        {
          "indexed": true,
          "internalType": "bytes32",
          "name": "previousAdminRole",
          "type": "bytes32"
        },
        {
          "indexed": true,
          "internalType": "bytes32",
          "name": "newAdminRole",
          "type": "bytes32"
        }
      ],
      "name": "RoleAdminChanged",
      "type": "event"
    },
    {
      "anonymous": false,
      "inputs": [
        {
          "indexed": true,
          "internalType": "bytes32",
          "name": "role",
          "type": "bytes32"
        },
        {
          "indexed": true,
          "internalType": "address",
          "name": "account",
          "type": "address"
        },
        {
          "indexed": true,
          "internalType": "address",
          "name": "sender",
          "type": "address"
        }
      ],
      "name": "RoleGranted",
      "type": "event"
    },
    {
      "anonymous": false,
      "inputs": [
        {
          "indexed": true,
          "internalType": "bytes32",
          "name": "role",
          "type": "bytes32"
        },
        {
          "indexed": true,
          "internalType": "address",
          "name": "account",
          "type": "address"
        },
        {
          "indexed": true,
          "internalType": "address",
          "name": "sender",
          "type": "address"
        }
      ],
      "name": "RoleRevoked",
      "type": "event"
    },
    {
      "inputs": [],
      "name": "DEFAULT_ADMIN_ROLE",
      "outputs": [
        {
          "internalType": "bytes32",
          "name": "",
          "type": "bytes32"
        }
      ],
      "stateMutability": "view",
      "type": "function"
    },
    {
      "inputs": [
        {
          "internalType": "bytes32",
          "name": "role",
          "type": "bytes32"
        }
      ],
      "name": "getRoleAdmin",
      "outputs": [
        {
          "internalType": "bytes32",
          "name": "",
          "type": "bytes32"
        }
      ],
      "stateMutability": "view",
      "type": "function"
    },
    {
      "inputs": [
        {
          "internalType": "address",
          "name": "contractAddress",
          "type": "address"
        },
        {
          "internalType": "string",
          "name": "functionSig",
          "type": "string"
        },
        {
          "internalType": "address",
          "name": "accountToPermit",
          "type": "address"
        }
      ],
      "name": "giveCallPermission",
      "outputs": [],
      "stateMutability": "nonpayable",
      "type": "function"
    },
    {
      "inputs": [
        {
          "internalType": "bytes32",
          "name": "role",
          "type": "bytes32"
        },
        {
          "internalType": "address",
          "name": "account",
          "type": "address"
        }
      ],
      "name": "grantRole",
      "outputs": [],
      "stateMutability": "nonpayable",
      "type": "function"
    },
    {
      "inputs": [
        {
          "internalType": "address",
          "name": "account",
          "type": "address"
        },
        {
          "internalType": "address",
          "name": "contractAddress",
          "type": "address"
        },
        {
          "internalType": "string",
          "name": "functionSig",
          "type": "string"
        }
      ],
      "name": "hasPermission",
      "outputs": [
        {
          "internalType": "bool",
          "name": "",
          "type": "bool"
        }
      ],
      "stateMutability": "view",
      "type": "function"
    },
    {
      "inputs": [
        {
          "internalType": "bytes32",
          "name": "role",
          "type": "bytes32"
        },
        {
          "internalType": "address",
          "name": "account",
          "type": "address"
        }
      ],
      "name": "hasRole",
      "outputs": [
        {
          "internalType": "bool",
          "name": "",
          "type": "bool"
        }
      ],
      "stateMutability": "view",
      "type": "function"
    },
    {
      "inputs": [
        {
          "internalType": "address",
          "name": "account",
          "type": "address"
        },
        {
          "internalType": "string",
          "name": "functionSig",
          "type": "string"
        }
      ],
      "name": "isAllowedToCall",
      "outputs": [
        {
          "internalType": "bool",
          "name": "",
          "type": "bool"
        }
      ],
      "stateMutability": "view",
      "type": "function"
    },
    {
      "inputs": [
        {
          "internalType": "bytes32",
          "name": "role",
          "type": "bytes32"
        },
        {
          "internalType": "address",
          "name": "account",
          "type": "address"
        }
      ],
      "name": "renounceRole",
      "outputs": [],
      "stateMutability": "nonpayable",
      "type": "function"
    },
    {
      "inputs": [
        {
          "internalType": "address",
          "name": "contractAddress",
          "type": "address"
        },
        {
          "internalType": "string",
          "name": "functionSig",
          "type": "string"
        },
        {
          "internalType": "address",
          "name": "accountToRevoke",
          "type": "address"
        }
      ],
      "name": "revokeCallPermission",
      "outputs": [],
      "stateMutability": "nonpayable",
      "type": "function"
    },
    {
      "inputs": [
        {
          "internalType": "bytes32",
          "name": "role",
          "type": "bytes32"
        },
        {
          "internalType": "address",
          "name": "account",
          "type": "address"
        }
      ],
      "name": "revokeRole",
      "outputs": [],
      "stateMutability": "nonpayable",
      "type": "function"
    },
    {
      "inputs": [
        {
          "internalType": "bytes4",
          "name": "interfaceId",
          "type": "bytes4"
        }
      ],
      "name": "supportsInterface",
      "outputs": [
        {
          "internalType": "bool",
          "name": "",
          "type": "bool"
        }
      ],
      "stateMutability": "view",
      "type": "function"
    }
  ],
  "transactionHash": "0x5cc9aeeea97de3deaa0d278ba9fb01361893bdbe0627bc73259eb1cb6ad2d14a",
  "args": [],
  "numDeployments": 1,
  "solcInputHash": "85cd23902b298b4aa5639d77a8bd0d1c",
  "bytecode": "0x6080604052348015600e575f80fd5b5060175f33601b565b60c1565b602382826027565b5050565b5f828152602081815260408083206001600160a01b038516845290915290205460ff166023575f828152602081815260408083206001600160a01b03851684529091529020805460ff19166001179055607d3390565b6001600160a01b0316816001600160a01b0316837f2f8788117e7eff1d82e926ec794901d17c78024a50270940304540a733656f0d60405160405180910390a45050565b610b21806100ce5f395ff3fe608060405234801561000f575f80fd5b50600436106100a6575f3560e01c8063545f7a321161006e578063545f7a321461013d578063584f6b601461015057806382bfd0f01461016357806391d1485414610176578063a217fddf14610189578063d547741f14610190575f80fd5b806301ffc9a7146100aa57806318c5e8ab146100d2578063248a9ca3146100e55780632f2ff15d1461011557806336568abe1461012a575b5f80fd5b6100bd6100b836600461077c565b6101a3565b60405190151581526020015b60405180910390f35b6100bd6100e0366004610803565b6101d9565b6101076100f3366004610852565b5f9081526020819052604090206001015490565b6040519081526020016100c9565b610128610123366004610869565b610263565b005b610128610138366004610869565b61028c565b61012861014b366004610893565b61030f565b61012861015e366004610893565b61038b565b6100bd6101713660046108f4565b6103f8565b6100bd610184366004610869565b61043b565b6101075f81565b61012861019e366004610869565b610463565b5f6001600160e01b03198216637965db0b60e01b14806101d357506301ffc9a760e01b6001600160e01b03198316145b92915050565b5f803384846040516020016101f093929190610951565b604051602081830303815290604052805190602001209050610212818661043b565b1561022157600191505061025c565b5f848460405160200161023693929190610951565b604051602081830303815290604052805190602001209050610258818661043b565b9150505b9392505050565b5f8281526020819052604090206001015461027d81610487565b6102878383610494565b505050565b6001600160a01b03811633146103015760405162461bcd60e51b815260206004820152602f60248201527f416363657373436f6e74726f6c3a2063616e206f6e6c792072656e6f756e636560448201526e103937b632b9903337b91039b2b63360891b60648201526084015b60405180910390fd5b61030b8282610517565b5050565b5f84848460405160200161032593929190610951565b6040516020818303038152906040528051906020012090506103478183610463565b7f55426a61e90ac7d7d1fc886b67b420ade8c8b535e68d655394bc271e3a12b8e28286868660405161037c949392919061097c565b60405180910390a15050505050565b5f8484846040516020016103a193929190610951565b6040516020818303038152906040528051906020012090506103c38183610263565b7f69c5ce2d658fea352a2464f87ffbe1f09746c918a91da0994044c3767d641b3f8286868660405161037c949392919061097c565b5f8084848460405160200161040f93929190610951565b604051602081830303815290604052805190602001209050610431818761043b565b9695505050505050565b5f918252602082815260408084206001600160a01b0393909316845291905290205460ff1690565b5f8281526020819052604090206001015461047d81610487565b6102878383610517565b610491813361057b565b50565b61049e828261043b565b61030b575f828152602081815260408083206001600160a01b03851684529091529020805460ff191660011790556104d33390565b6001600160a01b0316816001600160a01b0316837f2f8788117e7eff1d82e926ec794901d17c78024a50270940304540a733656f0d60405160405180910390a45050565b610521828261043b565b1561030b575f828152602081815260408083206001600160a01b0385168085529252808320805460ff1916905551339285917ff6391f5c32d9c69d2a47ea670b442974b53935d1edc7fd64eb21e047a839171b9190a45050565b610585828261043b565b61030b57610592816105d4565b61059d8360206105e6565b6040516020016105ae9291906109dd565b60408051601f198184030181529082905262461bcd60e51b82526102f891600401610a3b565b60606101d36001600160a01b03831660145b60605f6105f4836002610a84565b6105ff906002610a9b565b67ffffffffffffffff81111561061757610617610aae565b6040519080825280601f01601f191660200182016040528015610641576020820181803683370190505b509050600360fc1b815f8151811061065b5761065b610ac2565b60200101906001600160f81b03191690815f1a905350600f60fb1b8160018151811061068957610689610ac2565b60200101906001600160f81b03191690815f1a9053505f6106ab846002610a84565b6106b6906001610a9b565b90505b600181111561072d576f181899199a1a9b1b9c1cb0b131b232b360811b85600f16601081106106ea576106ea610ac2565b1a60f81b82828151811061070057610700610ac2565b60200101906001600160f81b03191690815f1a90535060049490941c9361072681610ad6565b90506106b9565b50831561025c5760405162461bcd60e51b815260206004820181905260248201527f537472696e67733a20686578206c656e67746820696e73756666696369656e7460448201526064016102f8565b5f6020828403121561078c575f80fd5b81356001600160e01b03198116811461025c575f80fd5b80356001600160a01b03811681146107b9575f80fd5b919050565b5f8083601f8401126107ce575f80fd5b50813567ffffffffffffffff8111156107e5575f80fd5b6020830191508360208285010111156107fc575f80fd5b9250929050565b5f805f60408486031215610815575f80fd5b61081e846107a3565b9250602084013567ffffffffffffffff811115610839575f80fd5b610845868287016107be565b9497909650939450505050565b5f60208284031215610862575f80fd5b5035919050565b5f806040838503121561087a575f80fd5b8235915061088a602084016107a3565b90509250929050565b5f805f80606085870312156108a6575f80fd5b6108af856107a3565b9350602085013567ffffffffffffffff8111156108ca575f80fd5b6108d6878288016107be565b90945092506108e99050604086016107a3565b905092959194509250565b5f805f8060608587031215610907575f80fd5b610910856107a3565b935061091e602086016107a3565b9250604085013567ffffffffffffffff811115610939575f80fd5b610945878288016107be565b95989497509550505050565b6bffffffffffffffffffffffff198460601b168152818360148301375f910160140190815292915050565b6001600160a01b0385811682528416602082015260606040820181905281018290525f828460808401375f608084840101526080601f19601f850116830101905095945050505050565b5f81518060208401855e5f93019283525090919050565b7f416363657373436f6e74726f6c3a206163636f756e742000000000000000000081525f610a0e60178301856109c6565b7001034b99036b4b9b9b4b733903937b6329607d1b8152610a3260118201856109c6565b95945050505050565b602081525f82518060208401528060208501604085015e5f604082850101526040601f19601f83011684010191505092915050565b634e487b7160e01b5f52601160045260245ffd5b80820281158282048414176101d3576101d3610a70565b808201808211156101d3576101d3610a70565b634e487b7160e01b5f52604160045260245ffd5b634e487b7160e01b5f52603260045260245ffd5b5f81610ae457610ae4610a70565b505f19019056fea26469706673582212200ea6a4c33f8b58fdd634b0f21ce06dc1f216b804bcaa2f93ece8f2755136e89664736f6c63430008190033",
  "devdoc": {
    "author": "Venus",
    "details": "This contract is a wrapper of OpenZeppelin AccessControl extending it in a way to standartize access control within Venus Smart Contract Ecosystem.",
    "events": {
      "PermissionGranted(address,address,string)": {
        "details": "If contract address is 0x000..0 this means that the account is a default admin of this function and can call any contract function with this signature"
      },
      "RoleAdminChanged(bytes32,bytes32,bytes32)": {
        "details": "Emitted when `newAdminRole` is set as ``role``'s admin role, replacing `previousAdminRole` `DEFAULT_ADMIN_ROLE` is the starting admin for all roles, despite {RoleAdminChanged} not being emitted signaling this. _Available since v3.1._"
      },
      "RoleGranted(bytes32,address,address)": {
        "details": "Emitted when `account` is granted `role`. `sender` is the account that originated the contract call, an admin role bearer except when using {AccessControl-_setupRole}."
      },
      "RoleRevoked(bytes32,address,address)": {
        "details": "Emitted when `account` is revoked `role`. `sender` is the account that originated the contract call:   - if using `revokeRole`, it is the admin role bearer   - if using `renounceRole`, it is the role bearer (i.e. `account`)"
      }
    },
    "kind": "dev",
    "methods": {
      "getRoleAdmin(bytes32)": {
        "details": "Returns the admin role that controls `role`. See {grantRole} and {revokeRole}. To change a role's admin, use {_setRoleAdmin}."
      },
      "giveCallPermission(address,string,address)": {
        "custom:event": "Emits a {RoleGranted} and {PermissionGranted} events.",
        "details": "this function can be called only from Role Admin or DEFAULT_ADMIN_ROLEif contractAddress is zero address, the account can access the specified function      on **any** contract managed by this ACL",
        "params": {
          "accountToPermit": "account that will be given access to the contract function",
          "contractAddress": "address of contract for which call permissions will be granted",
          "functionSig": "signature e.g. \"functionName(uint256,bool)\""
        }
      },
      "grantRole(bytes32,address)": {
        "details": "Grants `role` to `account`. If `account` had not been already granted `role`, emits a {RoleGranted} event. Requirements: - the caller must have ``role``'s admin role. May emit a {RoleGranted} event."
      },
      "hasPermission(address,address,string)": {
        "details": "This function is used as a view function to check permissions rather than contract hook for access restriction check.",
        "params": {
          "account": "for which call permissions will be checked against",
          "contractAddress": "address of the restricted contract",
          "functionSig": "signature of the restricted function e.g. \"functionName(uint256,bool)\""
        },
        "returns": {
          "_0": "false if the user account cannot call the particular contract function"
        }
      },
      "hasRole(bytes32,address)": {
        "details": "Returns `true` if `account` has been granted `role`."
      },
      "isAllowedToCall(address,string)": {
        "details": "Since restricted contracts using this function as a permission hook, we can get contracts address with msg.sender",
        "params": {
          "account": "for which call permissions will be checked",
          "functionSig": "restricted function signature e.g. \"functionName(uint256,bool)\""
        },
        "returns": {
          "_0": "false if the user account cannot call the particular contract function"
        }
      },
      "renounceRole(bytes32,address)": {
        "details": "Revokes `role` from the calling account. Roles are often managed via {grantRole} and {revokeRole}: this function's purpose is to provide a mechanism for accounts to lose their privileges if they are compromised (such as when a trusted device is misplaced). If the calling account had been revoked `role`, emits a {RoleRevoked} event. Requirements: - the caller must be `account`. May emit a {RoleRevoked} event."
      },
      "revokeCallPermission(address,string,address)": {
        "custom:event": "Emits {RoleRevoked} and {PermissionRevoked} events.",
        "details": "this function can be called only from Role Admin or DEFAULT_ADMIN_ROLE \t\tMay emit a {RoleRevoked} event.",
        "params": {
          "contractAddress": "address of contract for which call permissions will be revoked",
          "functionSig": "signature e.g. \"functionName(uint256,bool)\""
        }
      },
      "revokeRole(bytes32,address)": {
        "details": "Revokes `role` from `account`. If `account` had been granted `role`, emits a {RoleRevoked} event. Requirements: - the caller must have ``role``'s admin role. May emit a {RoleRevoked} event."
      },
      "supportsInterface(bytes4)": {
        "details": "See {IERC165-supportsInterface}."
      }
    },
    "title": "AccessControlManager",
    "version": 1
  },
  "userdoc": {
    "events": {
      "PermissionGranted(address,address,string)": {
        "notice": "Emitted when an account is given a permission to a certain contract function"
      },
      "PermissionRevoked(address,address,string)": {
        "notice": "Emitted when an account is revoked a permission to a certain contract function"
      }
    },
    "kind": "user",
    "methods": {
      "giveCallPermission(address,string,address)": {
        "notice": "Gives a function call permission to one single account"
      },
      "hasPermission(address,address,string)": {
        "notice": "Verifies if the given account can call a contract's guarded function"
      },
      "isAllowedToCall(address,string)": {
        "notice": "Verifies if the given account can call a contract's guarded function"
      },
      "revokeCallPermission(address,string,address)": {
        "notice": "Revokes an account's permission to a particular function call"
      }
    },
    "notice": "Access control plays a crucial role in the Venus governance model. It is used to restrict functions so that they can only be called from one account or list of accounts (EOA or Contract Accounts). The implementation of `AccessControlManager`(https://github.com/VenusProtocol/governance-contracts/blob/main/contracts/Governance/AccessControlManager.sol) inherits the [Open Zeppelin AccessControl](https://github.com/OpenZeppelin/openzeppelin-contracts/blob/master/contracts/access/AccessControl.sol) contract as a base for role management logic. There are two role types: admin and granular permissions.  ## Granular Roles  Granular roles are built by hashing the contract address and its function signature. For example, given contract `Foo` with function `Foo.bar()` which is guarded by ACM, calling `giveRolePermission` for account B do the following:  1. Compute `keccak256(contractFooAddress,functionSignatureBar)` 1. Add the computed role to the roles of account B 1. Account B now can call `ContractFoo.bar()`  ## Admin Roles  Admin roles allow for an address to call a function signature on any contract guarded by the `AccessControlManager`. This is particularly useful for contracts created by factories.  For Admin roles a null address is hashed in place of the contract address (`keccak256(0x0000000000000000000000000000000000000000,functionSignatureBar)`.  In the previous example, giving account B the admin role, account B will have permissions to call the `bar()` function on any contract that is guarded by ACM, not only contract A.  ## Protocol Integration  All restricted functions in Venus Protocol use a hook to ACM in order to check if the caller has the right permission to call the guarded function. `AccessControlledV5` and `AccessControlledV8` abstract contract makes this integration easier. They call ACM's external method `isAllowedToCall(address caller, string functionSig)`. Here is an example of how `setCollateralFactor` function in `Comptroller` is integrated with ACM: ``` contract Comptroller is [...] AccessControlledV8 { [...] function setCollateralFactor(VToken vToken, uint256 newCollateralFactorMantissa, uint256 newLiquidationThresholdMantissa) external { _checkAccessAllowed(\"setCollateralFactor(address,uint256,uint256)\"); [...] } } ```",
    "version": 1
  },
  "storageLayout": {
    "storage": [
      {
        "astId": 1045,
        "contract": "@venusprotocol/governance-contracts/contracts/Governance/AccessControlManager.sol:AccessControlManager",
        "label": "_roles",
        "offset": 0,
        "slot": "0",
        "type": "t_mapping(t_bytes32,t_struct(RoleData)1040_storage)"
      }
    ],
    "types": {
      "t_address": {
        "encoding": "inplace",
        "label": "address",
        "numberOfBytes": "20"
      },
      "t_bool": {
        "encoding": "inplace",
        "label": "bool",
        "numberOfBytes": "1"
      },
      "t_bytes32": {
        "encoding": "inplace",
        "label": "bytes32",
        "numberOfBytes": "32"
      },
      "t_mapping(t_address,t_bool)": {
        "encoding": "mapping",
        "key": "t_address",
        "label": "mapping(address => bool)",
        "numberOfBytes": "32",
        "value": "t_bool"
      },
      "t_mapping(t_bytes32,t_struct(RoleData)1040_storage)": {
        "encoding": "mapping",
        "key": "t_bytes32",
        "label": "mapping(bytes32 => struct AccessControl.RoleData)",
        "numberOfBytes": "32",
        "value": "t_struct(RoleData)1040_storage"
      },
      "t_struct(RoleData)1040_storage": {
        "encoding": "inplace",
        "label": "struct AccessControl.RoleData",
        "members": [
          {
            "astId": 1037,
            "contract": "@venusprotocol/governance-contracts/contracts/Governance/AccessControlManager.sol:AccessControlManager",
            "label": "members",
            "offset": 0,
            "slot": "0",
            "type": "t_mapping(t_address,t_bool)"
          },
          {
            "astId": 1039,
            "contract": "@venusprotocol/governance-contracts/contracts/Governance/AccessControlManager.sol:AccessControlManager",
            "label": "adminRole",
            "offset": 0,
            "slot": "1",
            "type": "t_bytes32"
          }
        ],
        "numberOfBytes": "64"
      }
    }
  }
}