{"abi":[{"type":"function","name":"createSender","inputs":[{"name":"initCode","type":"bytes","internalType":"bytes"}],"outputs":[{"name":"sender","type":"address","internalType":"address"}],"stateMutability":"nonpayable"}],"bytecode":{"object":"0x60808060405234601557610180908161001a8239f35b5f80fdfe60806040526004361015610011575f80fd5b5f3560e01c63570e1a3614610024575f80fd5b346100a15760203660031901126100a15760043567ffffffffffffffff81116100a157366023820112156100a15780600401359067ffffffffffffffff82116100a15736602483830101116100a15761009d91602461008392016100b9565b6040516001600160a01b0390911681529081906020820190565b0390f35b5f80fd5b634e487b7160e01b5f52604160045260245ffd5b816014116100a157601481019060131983019267ffffffffffffffff84116101455760405190600b8101601f19908116603f0116820167ffffffffffffffff81118382101761014557604052848252602082019136601487860101116100a1575f6020819693819883958737830101601319015251923560601c5af1905f51911561014057565b5f9150565b6100a556fea2646970667358221220c8937c692d9372fdf07c4b9b317a3b542902359d5b9c56912056406e64d6c2c664736f6c634300081e0033","linkReferences":{}},"methodIdentifiers":{"createSender(bytes)":"570e1a36"},"id":18}